{
  "contractName": "ethhodl",
  "abi": [
    {
      "constant": true,
      "inputs": [],
      "name": "amount",
      "outputs": [
        {
          "internalType": "uint256",
          "name": "",
          "type": "uint256"
        }
      ],
      "payable": false,
      "stateMutability": "view",
      "type": "function",
      "signature": "0xaa8c217c"
    },
    {
      "constant": true,
      "inputs": [],
      "name": "unLockTime",
      "outputs": [
        {
          "internalType": "uint256",
          "name": "",
          "type": "uint256"
        }
      ],
      "payable": false,
      "stateMutability": "view",
      "type": "function",
      "signature": "0xfacc7905"
    },
    {
      "constant": false,
      "inputs": [],
      "name": "hodl",
      "outputs": [],
      "payable": true,
      "stateMutability": "payable",
      "type": "function",
      "signature": "0x60f14509"
    },
    {
      "constant": false,
      "inputs": [],
      "name": "send",
      "outputs": [],
      "payable": false,
      "stateMutability": "nonpayable",
      "type": "function",
      "signature": "0xb46300ec"
    }
  ],
  "bytecode": "0x60806040526301e13380420160025534801561001a57600080fd5b506102028061002a6000396000f3fe60806040526004361061005c576000357c01000000000000000000000000000000000000000000000000000000009004806360f1450914610061578063aa8c217c1461006b578063b46300ec14610096578063facc7905146100ad575b600080fd5b6100696100d8565b005b34801561007757600080fd5b50610080610121565b6040518082815260200191505060405180910390f35b3480156100a257600080fd5b506100ab610127565b005b3480156100b957600080fd5b506100c26101c7565b6040518082815260200191505060405180910390f35b336000806101000a81548173ffffffffffffffffffffffffffffffffffffffff021916908373ffffffffffffffffffffffffffffffffffffffff16021790555034600181905550565b60015481565b6000809054906101000a900473ffffffffffffffffffffffffffffffffffffffff1673ffffffffffffffffffffffffffffffffffffffff163373ffffffffffffffffffffffffffffffffffffffff16148015610184575042600254105b61018d57600080fd5b6000809054906101000a900473ffffffffffffffffffffffffffffffffffffffff1673ffffffffffffffffffffffffffffffffffffffff16ff5b6002548156fea265627a7a72315820b70da28c5b0398ece1d7fec3a3ae114639ced0d560b7fc855e6d6b9d413be3fd64736f6c63430005110032",
  "source": "pragma solidity ^0.5.0;\n \ncontract ethhodl {\n    \n    address payable owner;\n    uint256 public amount;\n    uint public unLockTime = block.timestamp + 365 days;   // amount of time to hodl your eth...\n    \n    function hodl() payable public {\n        owner = msg.sender;\n        amount = msg.value;\n    }\n    \n    modifier onlyOwnerAtTime {\n        require(msg.sender == owner && unLockTime < block.timestamp);\n        _;\n    }\n \n    function send() public onlyOwnerAtTime {\n            selfdestruct(owner);\n    }\n}",
  "sourcePath": "/Users/robertpratl/Downloads/ethhodl/contracts/EthHodl.sol",
  "compiler": {
    "name": "solc",
    "version": "0.5.17+commit.d19bba13.Emscripten.clang"
  },
  "schemaVersion": "3.0.1",
  "updatedAt": "2021-12-01T19:56:20.557Z",
  "devdoc": {
    "methods": {}
  },
  "userdoc": {
    "methods": {}
  }
}